:0400000080310B2818
:100008007E1480318131822180317E100900803157
:100018000D2865308400003085000B309731FA27B1
:1000280080312100EE01EF0160308400013085004D
:1000380010309731FA278031A030840001308500D4
:100048001A309731FA2780317E10200088310B282A
:1000580020004203031D31283228482840081F3950
:10006800003A031D382839284828E7170330410685
:10007800031D3F28402846280130D6005608230093
:10008800B60048282300B60120004208031D4D2869
:100098004E28812940081F39023A031D5428552843
:1000A800812944080F39003A03195B285C28812903
:1000B80044080F39D6000230560203186428652810
:1000C8008129203021006F06031D6B286C288129A7
:1000D8002000E717C41B71287228882844080F39A4
:1000E8000907A43E860001308700403FDB00413FFE
:1000F800DC0044080F39A83E86000130870001085B
:10010800D6005608DA009C2844080F3909076A3EC9
:1001180086008701403FDB00413FDC0044080F397F
:10012800673E8600013087000108D6005608DA00CD
:100138005A189F28A028AB28FB30D600FF30D700DC
:100148005B085605DB005C085705DC00B128043065
:100158005B04DB0000305C04DC00C41BB428B52859
:10016800C12844080F390907A43E860001308700DA
:100178005B08C03F5C08C13FCB2844080F3909071A
:100188006A3E860087015B08C03F5C08C13F0330B8
:100198004106031DD028D128F7285B0886005C0893
:1001A8008700811FD828D928EC28C41BDC28DD2823
:1001B800E52844080F39A83E8600013087008114DD
:1001C800EC2844080F39673E860001308700811407
:1001D8005B0886005C08870001155B0886005C08E0
:1001E80087008117812904305B06DB0000305C063C
:1001F800DC005B0886005C088700811F042905294C
:1002080022297F30D6005B0886005C0887005608E4
:1002180081055B0886005C08870001170530D0005F
:100228000030D1005C08D3005B08D2000230D40053
:100238000030D5008A31C522803127295B08860025
:100248005C0887000117043020005B06DB000030E3
:100258005C06DC00DA18312932293A295B08860065
:100268005C088700811F39293A296529C41B3D2963
:100278003E29462944080F39A83E860001308700E8
:1002880081104D2944080F39673E860001308700E8
:1002980081103B30D6005B0886005C088700560852
:1002A80081050530D0000030D1005C08D3005B0820
:1002B800D2000230D4000030D5008A31C522803106
:1002C8006D293B30D6005B0886005C08870056081D
:1002D8008105200044080F39983ED600D7010E301A
:1002E800D73D5608D8005708D900FE30D600580820
:1002F80086005908870056088105080021006F0309
:10030800031D8729882996293D008E1A8C298D2955
:10031800962990011214121602302000E200620899
:100328002100EF003D00101D9A299B29A829121DC4
:100338009E299F29A829FB302000E20062083D0081
:1003480090058831AE2081313D008E1CAC29AD2945
:10035800B02920001211A52A101CB329B429C929D3
:10036800121CB729B829C92985317D258131210079
:10037800121504302000E20062082100EF00FE3070
:100388002000E20062083D009005101ECC29CD290E
:10039800D429121ED029D129D42988316E2081313F
:1003A8003D00101FD829D929062A121FDC29DD296A
:1003B800ED2973302000D0000030D1000030D20089
:1003C8000030D3000130D4000030D5008A31C52276
:1003D8008131BF302000E20062083D00900588317D
:1003E80034208131230033080319FB29FC29FE2915
:1003F8000130B3023308031D022A032A062A8C316E
:10040800752481313D00901E0A2A0B2A122A921E59
:100418000E2A0F2A122A8931ED2181313D00901CC4
:10042800162A172A2D2A921C1A2A1B2A2D2AFF302F
:100438002000D0007F30D1000030D2000030D3003F
:100448000130D4000030D5008A31C52281313D0009
:100458009301043021006F020318332A342A372A03
:1004680020001211A52A3D00921D3B2A3C2AA32AEE
:100478002000E4013D00901D422A432AA32A0F08C8
:100488002000E20062082200ED006D0C2000E2006E
:10049800E20C620C0F39E30063082200EA00F7302F
:1004A8002000E20062083D00900522006D195D2AD7
:1004B8005E2A6F2A6A08A83E860001308700010874
:1004C80001392000E2000130E20601086206FE3927
:1004D800620681007F2A6A08673E8600013087002D
:1004E800010801392000E2000130E2060108620635
:1004F800FE396206810022006A08031D842A852AC3
:10050800892A8B3154238131982A72302000D000F7
:100518000030D1006D30D2000130D3000030D4005B
:10052800D5008A31C522813101302000E2006208FD
:10053800E40704306402031CA22AA32A3E2A2000EE
:10054800121108007108FD007008FC007408750499
:10055800031DAF2AB02AB12A6F2B7C0886007D08BC
:1005680087007208810074087C07F60075087D3DD5
:10057800F7007608FF3EF800FF30773DF90078086D
:100588008600790887007208810000307502033000
:10059800031974020318D12AD22AD32A6F2B7C0894
:1005A800013EF60000307D3DF700760886007708AA
:1005B8008700720881007C08023EF60000307D3D0D
:1005C800F7007608860077088700720881007408AB
:1005D8007C07F60075087D3DF7007608FE3EF800BA
:1005E800FF30773DF900780886007908870072089F
:1005F800810074087C07F60075087D3DF7007608D1
:10060800FD3EF800FF30773DF9007808860079084C
:1006180087007208810000307502073003197402E0
:100628000318172B182B192B6F2B7C08033EF60089
:1006380000307D3DF700760886007708870072084D
:10064800810074087C07F60075087D3DF700760880
:10065800FC3EF800FF30773DF900780886007908FD
:10066800870072088100003075020930031974028E
:1006780003183F2B402B412B6F2B7C09F6007D097B
:10068800F700F60A0319F70A03307605FA00003076
:100698007705FB007A08FC077B08FD3D7A08F40221
:1006A8007B08F53BFC30F405FF30F505692B7C0829
:1006B80086007D088700720881000130F40200304E
:1006C800F53B0130FC070030FD3D74087504031D3F
:1006D8006E2B6F2B5B2B0800210012113D0093013C
:1006E800900198010E302100E2009930E100E30109
:1006F800610886006208870081010130E107003047
:10070800E23D0130E0006008E307630803198D2B20
:100718008E2B7C2B16303D0091009F3097007B304C
:1007280092002100E4016408E0000130E035FF3E5A
:10073800031D9A2B6035203E860087010030C03F9C
:100748000030C13FC23FC33F0130E0006008E4070A
:1007580008306402031CB12BB22B972B3D000E17F7
:1007680096010E120E13F7302100E00060083D00DC
:1007780090052000E7012200E201E301E4013D00C9
:100788009019C72BC82BB72B01302100E000600857
:100798002300B20001302100E00060082300B1000E
:1007A800B001AF01B5012100E40164356A3E86005D
:1007B80087010030C03FC13F6435A43E8600013048
:1007C80087000030C03FC13F6408673E86000130A3
:1007D800870081016408A83E8600013087008101F6
:1007E8000130E0006008E40702306402031CFD2BBE
:1007F800FE2BD92B28302000EA000030EB00163001
:100808003D00980000302000A3004030A2000830CE
:10081800A10004302100E00060082000A000A0171B
:100828002200EF0100302300A3000030A2000030B6
:10083800A1000030A000AE012100EF010800210056
:100848006E0886008701413FF5007508F200F30144
:10085800730822006402031D332C72086302031814
:10086800362C372C3B2C6308F2007208F50075080B
:10087800F200F3017208E3027308E43BF401572C19
:100888007408483E860087010108F2006008860067
:100898008701720881000130F2007208E007013018
:1008A800F2007208F40775087402031C5C2C5D2CB6
:1008B800442C630864040319622C632C9F2C2000C9
:1008C8006E08013EF20000306F3DF30072088600AA
:1008D80073088700083081004830F2000030F300C8
:1008E8006E0886006F08870042317208C03F73089F
:1008F800C13F21006E0886008701011B842C852CCE
:10090800922C20006E0886006F088700483081000E
:100918006E0886006F0887008117D02C20006E08AB
:1009280086006F088700083081006E0886006F080F
:1009380087008117D02C20006E08013EF20000309D
:100948006F3DF30072088600730887000830810045
:100958004030F2000030F3006E0886006F08870010
:1009680042317208C03F7308C13F6E0886006F08A5
:100978008700043081006E0886006F0887008117A1
:10098800220065086608E2136908031DCC2CCD2CEB
:10099800D02C8C31752484310800203021006F025E
:1009A8000318D72CD82CD92C7C2D3D008E1CDD2C7F
:1009B800DE2CDF2C7C2D23002C082D040319E52CBC
:1009C800E62C552D2C0886002D088700811BED2C60
:1009D800EE2C7C2D552D23002A082B040319F52C09
:1009E800F62CFE2C2A0886002B088700811BFD2C7C
:1009F800FE2C662D023089316E21843188311B200E
:100A080084312100EB006B08ED006D0803190D2DF2
:100A18000E2D182D8130EB006B082200A00003304A
:100A280089316E218431212D8230EB006B08220040
:100A3800A000043089316E2184312100E001E00AF0
:100A48002030E1000130E2004030EB006B08E300A9
:100A580001308F3178278431210061082300AB00F1
:100A6800210060082300AA00023089314521843121
:100A7800662D23002A082B040319432D442D4C2DE1
:100A88002A0886002B088700811B4B2D4C2D662DCC
:100A9800043089314521843103308931452184313D
:100AA800662D21002008EB00EC016C08003A0319C0
:100AB8005E2D662D6B08703A03193D2DF03A031927
:100AC800EF2C662D2100E001A030E1000030E200AB
:100AD8004030EB006B08E30001308F317827843118
:100AE800210061082300AD00210060082300AC004C
:100AF8000800210012113D009301900198010E3069
:100B0800F2009930F100F30171088600720887003D
:100B180081010130F1070030F23D0130F00070082A
:100B2800F30773080319992D9A2D882D16303D0067
:100B380091009F3097007B309200F4017408F00018
:100B48000130F035FF3E031DA52D7035203E86008F
:100B580087010030C03F0030C13FC23FC33F013072
:100B6800F0007008F40708307402031CBC2DBD2D7A
:100B7800A22D3D000E1796010E120E13F730F0004D
:100B8800700890052000E7012200E201E301E4017A
:100B98003D009019D02DD12DC22D0130F0007008E4
:100BA8002300B2000130F0007008B100B001AF01BD
:100BB800B501F40174356A3E860087010030C03FF4
:100BC800C13F7435A43E8600013087000030C03F25
:100BD800C13F7408673E86000130870081017408B0
:100BE800A83E86000130870081010130F0007008BE
:100BF800F40702307402031C022E032EDE2D283067
:100C08002000EA000030EB0016303D00980000306C
:100C18002000A3004030A2000830A1000430F000FA
:100C28007008A000A0172200EF0100302300A300E5
:100C38000030A2000030A1000030A000AE01210069
:100C4800EF0108003D000E122000E71B2C2E2D2E70
:100C5800742E2200E21F312E322E432E0230F50070
:100C68007508EB0023002F08031D3B2E3C2E3F2E5A
:100C78008B31AF2386312300B101B201C72E20008A
:100C88006E08013EF50000306F3DF60075088600DD
:100C980076088700083081004030F5000030F60003
:100CA8006E0886006F08870042317508C03F7608D5
:100CB800C13F6E0886006F0887000C3081006E08FF
:100CC80086006F08870081176A0886006B0887000E
:100CD800043081006A0886006B0887008117C72ED8
:100CE800C01F772E782E932E0130F500750822004C
:100CF800EB0023003008031D822E832E862E8B31B5
:100D0800AF2386312300B101B20122006908031D17
:100D18008E2E8F2EC72E8C3175248631C72E023029
:100D2800F50075082200EB0020006E08013EF50072
:100D380000306F3DF6007508860076088700083099
:100D480081004030F5000030F6006E0886006F081C
:100D5800870042317508C03F7608C13F6E0886009B
:100D68006F088700043081006E0886006F088700CE
:100D780081172300B101B20122006908031DC52EA5
:100D8800C62EC72E8F2E0800200040081F39013AB2
:100D98000319CF2ED02ED12E662F44080319D52E35
:100DA800D62ED72E662F06304106031DDC2EDD2EEB
:100DB800122FFF2E22006F03031DE32EE42E122FA5
:100DC80012302000E5009030E6000030E9000930DC
:100DD800E800C030F0007008E700122F4930E50045
:100DE8009030E6000030E9001D30E800C030F00027
:100DF8007008E700122F4308F000F1017108003A6B
:100E08000319072F122F7008213A0319DE2E033A0F
:100E18000319F22E013A0319122F122F2000400E47
:100E2800890C0339013A03191A2F1B2F4A2F662FF1
:100E3800B930E5000130E6000030E9000130E80093
:100E4800C130F0007008E700662F8030F0007008AD
:100E5800E7004308F00070082300B900662FB83097
:100E6800E5000130E6000030E9000130E80081309B
:100E7800F0007008E700662F8030F0007008E70087
:100E88004208F00070082300B800662F4108F000FF
:100E9800F1017108003A0319522F662F7008013AC0
:100EA8000319662F033A03191C2F013A0319332F2C
:100EB8000A3A0319662F033A0319292F013A03192D
:100EC800402F662F08002000E7170E30D800993011
:100ED800D700D901570886005808870081010130DA
:100EE800D7070030D83D0130D6005608D907590831
:100EF80003197F2F802F6E2F2030F0000030F10073
:100F08000030F200F3002030F4000030F5008231A8
:100F1800A62287313D000E172000DA015A08673EE5
:100F280086000130870081015A08A83E86000130FA
:100F3800870081010130D6005608DA0702305A02CC
:100F4800031CA72FA82F922F6E30F0000130F1005C
:100F58000030F200F3000130F4000030F500823177
:100F6800A62287313D000E1328302000EA00003009
:100F7800EB002030D60056082100EE006E08200055
:100F8800EE00FF39031D0030EF004208D600560876
:100F98002200EF006F08031DD22FD32FDA2F103055
:100FA8002000D60056082100EF00F02F0130200065
:100FB800D0000030D1006F30D2000130D3000130B2
:100FC800D4000030D5008A31C52287312030200076
:100FD800D60056082100EF00080021008E120E12DC
:100FE8008E110E1322008E120E128E110E1308008F
:060FF80021008C16080028
:1010000021008E120E128E110E1322008E120E125D
:101010008E110E13080000308931C22188318331CE
:101020007023883188318E2088318431D1248831F1
:10103000152880310B282100E101E10AE20120009E
:101040008C1A2328242827282100E1013228013086
:101050002100E0006008E20764306202031C3128CE
:1010600032281F286108080001302300A007003043
:10107000A13D0030A23D0030A33D3508031D4128AD
:1010800042284F280130F0007008AE072E08031DDB
:101090004A284B284F28FF30F0007008AE000800A7
:1010A0002300AA01AB011E30FD007D08F7000130CE
:1010B0008831D0208831F001A030F1000030F200FA
:1010C0004030FD007D08F30001308E31F12688317B
:1010D00071082300AD007008AC0008003D00121537
:1010E000EF302000D60056083D0090058E140130E8
:1010F0002000D60056082300B500AE017530200050
:10110000D0000030D1000030D2000030D3000030D9
:10111000D400D5008A31C5228831080021006F082B
:10112000031D93289428AD283D008E0192011630AE
:1011300091009F3097007B309200210012150B1711
:101140008B17A3288E153D008E1DA728A828A2283E
:1011500001302100E0006008EF0008002300B50125
:1011600074302000D0000030D1000030D2000030B8
:10117000D3000030D400D5008A31C52288313D002B
:101180008E101211C928FB302000D60056083D00F1
:1011900090051019CC28CD28C3282300AE010800E3
:1011A000FC00771DD428D528DA28F0017C088A3184
:1011B00082228831F71CDD28DE28E428F001F00ABD
:1011C0007C088A31822288317C08983EF800F90137
:1011D0000E30F93D7808FA007908FB007A0886009D
:1011E0007B088700770881000800F20003292200AD
:1011F0008E161C2922000E161C2922008E151C2971
:1012000022000E171C297208F000F1017108003A43
:1012100003190B291C297008003A03191C29013AEB
:101220000319F728033A0319FA28013A0319FD288C
:10123000073A031900291C290800F2002B29220073
:101240008E12442922000E12442922008E114429B4
:1012500022000E1344297208F000F1017108003ACF
:101260000319332944297008003A03194429013A23
:1012700003191F29033A03192229013A03192529C1
:10128000073A03192829442908002100E2005429BB
:1012900022008E126D2922000E126D2922008E115D
:1012A0006D2922000E136D296208E000E10161083A
:1012B000003A03195C296D296008003A03196D2969
:1012C000013A03194829033A03194B29013A031932
:1012D0004E29073A031951296D2908002100E2001F
:1012E0007D2922008E16962922000E1696292200AC
:1012F0008E15962922000E1796296208E000E1015A
:101300006108003A0319852996296008003A0319F3
:101310009629013A03197129033A03197429013AEC
:1013200003197729073A03197A2996290800F50045
:10133000AE29FC3021009900903027009B0023004B
:101340008C018E018831002089319731F72789314E
:10135000C129013089311D218931C1297508F30066
:10136000F4017408003A0319B629C1297308003A38
:1013700003199929013A0319A929033A0319C12923
:10138000C12908002100E500D929FC3099009030DE
:1013900027009B0023008C018E018731F1278931C2
:1013A0008731FC278931EC29013089314521893188
:1013B000EC296508E300E4016408003A0319E12917
:1013C000EC296308003A0319C529013A0319D42905
:1013D000033A0319EC29EC2908003D00181CF129F7
:1013E000F229152A21006E08860087018030010647
:1013F000031DFB29FC29132A20006A0886006B08BC
:10140000870084300106031D062A072A132A0C30A0
:10141000F00021006E0886008701700881006E08C8
:101420008600870181173D001810DF30F00070083A
:1014300090050800F8007108F6007008F5007808BB
:10144000F4007408F9003B2A7508860076088700C6
:101450000108F4007408F7000130F5070030F63D8C
:101460007708F4007908860087017408810001304C
:10147000F4007408F9070130F2020030F33B720AFD
:10148000031D462A730A031D462A472A242A0800F8
:10149000023022006B06031D4E2A4F2A532A843144
:1014A00023248A31812AEB0123003408031D592AA1
:1014B0005A2A802A20006E08013EF60000306F3D57
:1014C000F7007608860077088700083081004030F2
:1014D000F6000030F7006E0886006F088700423182
:1014E0007608C03F7708C13F6E0886006F08870006
:1014F0000C3081006E0886006F0887008117812AF2
:10150000B4010800F5002030F1007108F600700801
:10151000F1000130F135890B8A2A7508F20001309B
:10152000F235FF3E031D902A72357107F30001303A
:10153000F335FF3E031D982A7335F4007408F6074F
:1015400076088600870181137008031DA82AA92A3E
:10155000B32A7535A43E8600013087007608C03F67
:101560000030C13FBB2A75356A3E86008701760888
:10157000C03F0030C13F760886008701011376081E
:10158000043E8600870101170800E02A01308931F6
:1015900097218A31013089311D218A31082B02308F
:1015A000893197218A31082B883150208A310130C6
:1015B0008831F5208A31082B8631C8268A31082BDC
:1015C00020005108003A0319E92A7F3A0319032B36
:1015D000082B5008013A0319D42A033A0319082B9F
:1015E000013A0319DC2A063A0319082B773A031942
:1015F000082B013A0319082B073A0319CF2A013A9D
:101600000319C62A082B5008FF3A0319082B082B88
:1016100008002200EC01E9012300B001AF01B40190
:101620002200EB017F302000DF006A0886006B0893
:1016300087005F08810504306A06EA0000306B0607
:10164000EB007F30DF006A0886006B0887005F08C8
:10165000810504306A06EA0000306B06EB007F303B
:10166000DF006E0886006F0887005F088105E701CC
:10167000E801E9012200E201E301E4018D316D2579
:101680008B3103302000D0000030D1000030D20078
:101690000030D3000030D400D5008A31C5228B3110
:1016A000863126268B3108002D302000E0006008AE
:1016B0002300B30022006D08FD39031D602B612B50
:1016C000A12B6D363F392000E0000130E035FF3EB0
:1016D000031D662B6035203EE10061082100EE000D
:1016E0006E082000EE00FF39031D0030EF000430CB
:1016F0006E06EE0000306F06EF0021006E088600D7
:101700008701010C890C0F390D3A031D882B892B99
:101710009D2B6E08023E86008701403FF000413F4E
:10172000F1000830F2000030F30040308A311A2214
:101730008B318B3109238B31AE2B8A3148228B318F
:10174000AE2BFD306D052000E00004306006031D67
:10175000AA2BAB2BAE2B8C31EF248B31080023004E
:10176000B001AF01023022006B06031DB82BB92B6C
:10177000DF2B20006E08013EF30000306F3DF400C7
:101780007308860074088700083081004830F30031
:101790000030F4006E0886006F088700423173083D
:1017A000C03F7408C13F6E0886006F08870048304C
:1017B00081006E0886006F08870081170A2C2000C0
:1017C00069084702031DE62B680846020318E92B47
:1017D000EA2BEE2B4708E9004608E8008D31EB259F
:1017E0008B314830F3000030F40020006A08860096
:1017F0006B08870042317308C03F7408C13F6A0814
:1018000086006B088700483081006A0886006B08F4
:101810008700811708002000C801C901522CE71772
:1018200023003603031D152C162C662C2000C8142B
:10183000662CE717662CE71744080F39003A03199E
:10184000222C232C662CC41B262C272C332C44083A
:101850000F390907A43E860001308700403FF2009F
:10186000413FF3003D2C44080F3909076A3E8600CA
:101870008701403FF200413FF30072088600730881
:101880008700811F442C452C662C72088600730843
:101890008700011D4C2C4D2C662C0130F000700887
:1018A000C800662C40081F39F000F1017108003AA9
:1018B00003195B2C662C7008003A03190F2C013AAF
:1018C0000319192C033A03191B2C662C2000E71F5F
:1018D0006A2C6B2C742C4830E5000030E60067144D
:1018E0000230F0007008E800080023003208031DF1
:1018F0007A2C7B2CEE2C0130F0007008B2003108FD
:10190000031D832C842CEE2C0130F0007008B100F4
:10191000023022006B06031D8E2C8F2CA22C20007F
:101920006A0886006B088700413181016A088600D9
:101930006B088700483081006A0886006B088700C2
:101940008117EE2C6B03031DA62CA72CEE2C230075
:10195000B4010830F00021006E0A8600870170088B
:1019600081004030F0000030F1006E08023E860039
:1019700087017008C03F7108C13F0430F0006E0855
:1019800086008701700881006E0886008701811734
:101990000130F00070082300B40020006E08013E02
:1019A000F00000306F3DF10070088600710887007C
:1019B000083081004030F0000030F1006E088600F1
:1019C0006F08870042317008C03F7108C13F6E0840
:1019D00086006F08870080308100EE2C0800200010
:1019E0006A0886006B0887000030011B0130F50093
:1019F00004306A06EA0000306B06EB000830210074
:101A00006F06031D042D052D1A2D200042087F3975
:101A10003D009600160803190E2D0F2D152D1030C0
:101A2000F30073082100EF001A2D0430F30073084F
:101A30002100EF0022006B03031D1F2D202D642DBC
:101A40004830F3000030F40020006A0886006B087C
:101A5000870042317308C03F7408C13F8D31EB25C8
:101A60008C31023022006C06031D372D382D452D98
:101A700020006A0886006B088700043081006A082D
:101A800086006B08870081176C2D7508031D492D92
:101A90004A2D572D20006A0886006B0887004830C1
:101AA00081006A0886006B08870081176C2D200072
:101AB0006A0886006B088700083081006A08860083
:101AC0006B08870081176C2DE21F672D682D6B2D29
:101AD00065086608E213EB0108002000400E890C3F
:101AE0000339003A0319752D762DBF2DEA2DE7171E
:101AF0000830DD005D082100EF00EA2D8E316E26F2
:101B00008D31EA2D873167278D31EA2D6F30E50061
:101B10000130E60067140130DD005D08E800E717DA
:101B2000EA2D8C310B248D31EA2D80312C208D3122
:101B3000EA2D44086E3EE5000130E60067140130EE
:101B4000DD005D08E800E717EA2DE7174208DD0031
:101B500044086E3E8600013087005D088100EA2D52
:101B60000230D0000030D1000030D2000030D3006D
:101B70000030D400D5008A31C5228D31EA2D4108CC
:101B8000DD00DE015E08003A0319C72DEA2D5D086D
:101B9000003A0319912D013A0319952D023A0319C0
:101BA000952D063A0319772D033A03197E2D013A34
:101BB0000319B02D0F3A0319862D013A0319822D0E
:101BC000033A0319992D013A0319A52D073A031970
:101BD000EA2DEA2D08000830F0007008F20000300D
:101BE000200069020830031968020318F82DF92D46
:101BF000112E6808F0007008F20022006C08031D26
:101C0000022E032E082E0130F0007008EC00112E79
:101C10006C03031D0C2E0D2E112E0230F0007008E7
:101C2000EC007208F000F10170082000E802710871
:101C3000E93B6A08013EF00000306B3DF10070089E
:101C4000860071088700720881004830F000700833
:101C50002300B700200067182E2E2F2E682E492E45
:101C6000200065088400660885000008F000230055
:101C70003708860087017008810001302000E507E1
:101C80000030E63D0130F00070082300B707013056
:101C9000F2027208031D4D2E4E2E302E6D2E2000A6
:101CA00065088400660885000008F00023003708F6
:101CB000860087017008810001302000E5070030B0
:101CC000E63D0130F00070082300B7070130F20252
:101CD0007208031D6C2E6D2E4F2E080080302000E0
:101CE0004006031D742E752EF02EC030F0007008D3
:101CF000E700DD2E8230E5009030E6000030E9009C
:101D00001230E800F02E4208031D872E882EB62ED2
:101D10004208F000F101F035F10D04307007840045
:101D20009830713D8500003FE500013FE600660800
:101D3000F1006508F0000230700784007108031894
:101D4000710A85000008F2007208E8006608F100D8
:101D50006508F00003307007840071080318710AE9
:101D600085000008F2007208E900F02EE701F02E6D
:101D7000033042020318BD2EBE2ED92E4208F000B9
:101D8000F101F035F10D9430700784009030713D11
:101D90008500003FE500013FE60065088400660815
:101DA00085000008F000F1017008E8007108E90002
:101DB000F02EE701F02EE701F02E4308F000F101CC
:101DC0007108003A0319E52EDB2E7008013A031959
:101DD0007A2E033A0319832E013A0319B82EDB2E0B
:101DE0000800F80070080319F62EF72E002F78353A
:101DF0006A3E86008701403FF900413FFA00092F03
:101E00007835A43E860001308700403FF900413F0D
:101E1000FA0079087A04031D0E2F0F2F122FF001FC
:101E2000F101772FFF307105F4007F307205F50066
:101E3000790886007A08870042317408C03F750827
:101E4000C13F7908013EF40000307A3DF500740886
:101E5000860075088700730881004030F400790817
:101E600086007A08870074088105790886007A0858
:101E700087008115790886007A0887008117700825
:101E80000319432F442F5B2F78356A3E8600870164
:101E9000403FF400413FF50004307406F600003086
:101EA0007506F70078356A3E860087017608C03FE0
:101EB0007708C13F732F7835A43E86000130870034
:101EC000403FF400413FF50004307406F600003056
:101ED0007506F7007835A43E860001308700760845
:101EE000C03F7708C13F7A08F1007908F000080088
:101EF0002100E800600803197E2F7F2F882F6835A6
:101F00006A3E86008701403FE900413FEA00912F89
:101F10006835A43E860001308700403FE900413F1C
:101F2000EA0069086A04031D962F972F9A2FE00193
:101F3000E101FF2FFF306105E4007F306205E5001D
:101F4000690886006A08870042316408C03F650856
:101F5000C13F6908013EE40000306A3DE5006408C5
:101F6000860065088700630881004030E400690846
:101F700086006A08870064088105690886006A0887
:101F800087008115690886006A0887008117600844
:101F90000319CB2FCC2FE32F68356A3E86008701CB
:101FA000403FE400413FE50004306406E6000030B5
:101FB0006506E70068356A3E860087016608C03F0F
:101FC0006708C13FFB2F6835A43E860001308700BB
:101FD000403FE400413FE50004306406E600003085
:101FE0006506E7006835A43E860001308700660874
:101FF000C03F6708C13F6A08E1006908E0000800C7
:102000000934023429340034013401340034C0343A
:1020100032340934043400340034023403340034DC
:1020200000340034093421341134013400340134D3
:1020300022341D34003407340534813403344034F1
:10204000003401340734053401340334403400349F
:10205000013420340334473400346F340034723494
:102060000034673400346534003420340034543490
:102070000034653400346334003468340034203470
:102080000034493400346E340034633400342E3468
:10209000003406340034FF3409340134A1340134EF
:1020A0001934013429344034153400342634FF34D3
:1020B0000034753408349534403481340034193494
:1020C00001342934403491340034C0341C34033496
:1020D000413400346C340034633400346F340034E1
:1020E000683400346F3400346C34003420340034ED
:1020F00044340034723400346934003476340034AB
:1021000065340034123401340034023400340034B5
:1021100000340834D83404343F34003400340134FB
:1021200001340234003401340034983429349034BA
:04213000663490344D
:102FEE0021008C160800640080010131890BFB2F33
:0E2FFE000034043403340934043400349034B5
:020000040001F9
:04000E00A40FCF1F4D
:00000001FF
