:0400000080310B2818
:100008007E1480318131832180317E100900803156
:100018000D2865308400003085000B308731F927C2
:1000280080312100ED01EE01EF01603084000130E4
:1000380085000B308731F9278031A03084000130EA
:1000480085001E308731F92780317E1020009731D6
:10005800B62F20004203031D3228332849284008C0
:100068001F39003A031D39283A284928E717033071
:100078004106031D4028412847280130D60056086C
:100088002300BA0049282300BA0120004208031DB2
:100098004E284F28822940081F39023A031D552847
:1000A8005628822944080F39003A03195C285D282C
:1000B800822944080F39D6000230560203186528F1
:1000C80066288229203022006806031D6C286D28C6
:1000D80082292000E717C41B72287328892844083E
:1000E8000F390907AB3E860001308700403FDB002F
:1000F800413FDC0044080F39603E8600013087002C
:100108000108D6005608DA009D2844080F39090767
:100118006A3E86008701403FDB00413FDC0044081F
:100128000F39623E8600013087000108D600560864
:10013800DA005A18A028A128AC28FB30D600FF30D6
:10014800D7005B085605DB005C085705DC00B228C1
:1001580004305B04DB0000305C04DC00C41BB52801
:10016800B628C22844080F390907AB3E860001307B
:1001780087005B08C03F5C08C13FCC2844080F39A2
:1001880009076A3E860087015B08C03F5C08C13FDB
:1001980003304106031DD128D228F8285B088600C1
:1001A8005C088700811FD928DA28ED28C41BDD28C0
:1001B800DE28E62844080F39603E860001308700B3
:1001C8008114ED2844080F39623E8600013087000B
:1001D80081145B0886005C08870001155B088600AF
:1001E8005C0887008117822904305B06DB00003039
:1001F8005C06DC005B0886005C088700811F052917
:10020800062923297F30D6005B0886005C08870012
:10021800560881055B0886005C08870001170530D1
:10022800D0000030D1005C08D3005B08D200023057
:10023800D4000030D5008A31D422803128295B08C7
:1002480086005C0887000117043020005B06DB008D
:1002580000305C06DC00DA18322933293B295B08B8
:1002680086005C088700811F3A293B296629C41B40
:100278003E293F29472944080F39603E860001304E
:10028800870081104E2944080F39623E86000130EC
:10029800870081103B30D6005B0886005C08870029
:1002A800560881050530D0000030D1005C08D30025
:1002B8005B08D2000230D4000030D5008A31D42245
:1002C80080316E293B30D6005B0886005C088700C9
:1002D80056088105200044080F39983ED600D701FA
:1002E8000E30D73D5608D8005708D900FE30D60042
:1002F800580886005908870056088105080022001A
:100308006803031D8829892997293D008E1A8D299C
:100318008E29972990011214121602302000E2004B
:1003280062082200E8003D00101D9B299C29A9298C
:10033800121D9F29A029A929FB302000E20062088C
:100348003D00900588314E2081313D008E1CAD293D
:10035800AE29B12920001211A82A101CB429B529E8
:10036800CA29121CB829B929CA298531B22581316F
:100378002100121504302000E20062082200E80083
:10038800FE302000E20062083D009005101ECD29D5
:10039800CE29D529121ED129D229D52988310D2057
:1003A80081313D00101FD929DA29072A121FDD29BA
:1003B800DE29EE2973302000D0000030D100003053
:1003C800D2000030D3000130D4000030D5008A318B
:1003D800D4228131BF302000E20062083D00900540
:1003E8009731C6278131220065080319FC29FD29A8
:1003F800FF290130E5026508031D032A042A072A9C
:100408008B31E92381313D00901E0B2A0C2A132AD7
:10041800921E0F2A102A132A8931B12181313D00F9
:10042800901C172A182A2E2A921C1B2A1C2A2E2AAC
:10043800FF302000D0007F30D1000030D2000030E3
:10044800D3000130D4000030D5008A31D422813164
:100458003D0093010430220068020318342A352A2B
:10046800382A20001211A82A3D00921D3C2A3D2A54
:10047800A62A2000E4013D00901D432A442AA62A0A
:100488000F082000E20062082100EF006F0C200036
:10049800E200E20C620C0F39E30063082200E60078
:1004A800F7302000E20062083D00900521006F1936
:1004B8005E2A5F2A712A22006608603E86000130A3
:1004C8008700010801392000E2000130E206010836
:1004D8006206FE3962068100822A22006608623EB0
:1004E800860001308700010801392000E200013050
:1004F800E20601086206FE396206810022006608EB
:10050800031D872A882A8C2A8B31242381319B2A30
:1005180072302000D0000030D100EF30D20000301F
:10052800D3000030D400D5008A31D4228131013083
:100538002000E2006208E40704306402031CA52AD4
:10054800A62A3F2A20001211080020302200680243
:100558000318AF2AB02AB12A852B3D008E1CB52A74
:10056800B62AB72A852B2300310832040319BD2A7D
:10057800BE2A5B2B3108860032088700811BC52AFA
:10058800C62A852B5B2B23002F0830040319CD2A9C
:10059800CE2AD62A2F08860030088700811BD52A44
:1005A800D62A6F2B02308931302182316F2B2300FC
:1005B8002F0830040319E12AE22AEA2A2F088600C4
:1005C80030088700811BE92AEA2A6F2B0430893119
:1005D8000721823103308931072182310230893184
:1005E800072182316F2B23002F0830040319FD2ABD
:1005F800FE2A062B2F08860030088700811B052B52
:10060800062B6F2B2200EF018831702082312100E8
:1006180061082200EE00210060082200ED006E084B
:100628002100EB006B082200EB006D082100EB00B5
:100638006B082200EC006B082100EB0022006F0819
:10064800203E86000130870021006B0881002200CF
:100658006C082100EB0022006F08213E8600013063
:10066800870021006B0881000230EB006B08220034
:10067800EF0740306F02031C422B432B082B21004D
:10068800E001E00A2030E1000130E2004030EB00F8
:100698006B08E30001308E31EE26823121006108BB
:1006A8002300B000210060082300AF006F2B210059
:1006B8002008EB00EC016C08003A0319642B6F2B3F
:1006C8006B08603A0319F72A103A0319DB2AF03A43
:1006D8000319C72A6F2B2100E001A030E100003088
:1006E800E2004030EB006B08E30001308E31EE266B
:1006F8008231210061082300B20021006008230034
:10070800B10008007108FD007008FC007408750449
:10071800031D8F2B902B912B4F2C7C0886007D0876
:1007280087007208810074087C07F60075087D3D13
:10073800F7007608FF3EF800FF30773DF9007808AB
:10074800860079088700720881000030750203303E
:10075800031974020318B12BB22BB32B4F2C7C084E
:10076800013EF60000307D3DF700760886007708E8
:100778008700720881007C08023EF60000307D3D4B
:10078800F7007608860077088700720881007408E9
:100798007C07F60075087D3DF7007608FE3EF800F8
:1007A800FF30773DF90078088600790887007208DD
:1007B800810074087C07F60075087D3DF70076080F
:1007C800FD3EF800FF30773DF9007808860079088B
:1007D800870072088100003075020730031974021F
:1007E8000318F72BF82BF92B4F2C7C08033EF60047
:1007F80000307D3DF700760886007708870072088C
:10080800810074087C07F60075087D3DF7007608BE
:10081800FC3EF800FF30773DF9007808860079083B
:1008280087007208810000307502093003197402CC
:1008380003181F2C202C212C4F2C7C09F6007D0935
:10084800F700F60A0319F70A03307605FA000030B4
:100858007705FB007A08FC077B08FD3D7A08F4025F
:100868007B08F53BFC30F405FF30F505492C7C0886
:1008780086007D088700720881000130F40200308C
:10088800F53B0130FC070030FD3D74087504031D7D
:100898004E2C4F2C3B2C0800210012113D009301D7
:1008A800900198010E302100E2009930E100E30147
:1008B800610886006208870081010130E107003085
:1008C800E23D0130E0006008E307630803196D2C7E
:1008D8006E2C5C2C16303D0091009F3097007B30C9
:1008E80092002100E4016408E0000130E035FF3E99
:1008F800031D7A2C6035203E860087010030C03FFA
:100908000030C13FC23FC33F0130E0006008E40748
:1009180008306402031C912C922C772C3D000E1792
:1009280096010E120E13F7302100E00060083D001A
:1009380090052000E7012300A201A301A4013D00C6
:100948009019A72CA82C972C01302100E0006008F2
:100958002300B70001302100E00060082300B60042
:10096800B501B401B9012100E40164356A3E86008D
:1009780087010030C03FC13F6435AB3E860001307F
:1009880087000030C03FC13F6408623E86000130E6
:10099800870081016408603E86000130870081017C
:1009A8000130E0006008E40702306402031CDD2C1B
:1009B800DE2CB92C28302000EA000030EB0016307D
:1009C8003D00980000302000A3004030A20008300D
:1009D800A10004302100E00060082000A000A0175A
:1009E8002200EA0100302300AA000030A9000030EC
:1009F800A8000030A700B3012200E8010800210088
:100A08006E0886008701413FF5007508F200F30182
:100A1800730823002402031D132D720823020318F0
:100A2800162D172D1B2D2308F2007208F5007508E6
:100A3800F200F3017208A3027308A43BF401372DF6
:100A48007408483E860087010108F20020088600E5
:100A58008701720881000130F2007208A007013096
:100A6800F2007208F40775087402031C3C2D3D2D32
:100A7800242D230824040319422D432D7F2D200003
:100A88006E08013EF20000306F3DF30072088600E8
:100A980073088700083081004830F2000030F30006
:100AA8006E0886006F08870042317208C03F7308DD
:100AB800C13F21006E0886008701011B642D652D4A
:100AC800722D20006E0886006F088700483081006C
:100AD8006E0886006F0887008117B12D20006E0808
:100AE80086006F088700083081006E0886006F084E
:100AF80087008117B12D20006E08013EF2000030FA
:100B08006F3DF30072088600730887000830810083
:100B18004030F2000030F3006E0886006F0887004E
:100B280042317208C03F7308C13F6E0886006F08E3
:100B38008700043081006E0886006F0887008117DF
:100B4800230025082608A21322006408031DAD2DE2
:100B5800AE2DB12D8B31E92385310800210012110A
:100B68003D009301900198010E30F2009930F10098
:100B7800F301710886007208870081010130F107CE
:100B88000030F23D0130F0007008F30773080319D4
:100B9800CE2DCF2DBD2D16303D0091009F309700F2
:100BA8007B309200F4017408F0000130F035FF3E0C
:100BB800031DDA2D7035203E860087010030C03FC6
:100BC8000030C13FC23FC33F0130F0007008F40756
:100BD80008307402031CF12DF22DD72D3D000E179D
:100BE80096010E120E13F730F000700890052000E1
:100BF800E7012300A201A301A4013D009019052EDD
:100C0800062EF72D0130F00070082300B7000130E0
:100C1800F0007008B600B501B401B901F4017435EB
:100C28006A3E860087010030C03FC13F7435AB3E45
:100C38008600013087000030C03FC13F7408623E23
:100C480086000130870081017408603E860001300B
:100C5800870081010130F0007008F4070230740247
:100C6800031C372E382E132E28302000EA000030BF
:100C7800EB0016303D00980000302000A300403003
:100C8800A2000830A1000430F0007008A000A017EE
:100C98002200EA0100302300AA000030A900003039
:100CA800A8000030A700B3012200E80108003D00B9
:100CB8000E122000E71B612E622EAA2E2300A21F0F
:100CC800662E672E792E0230F50075082100ED009A
:100CD80023003408031D712E722E752E87319D272F
:100CE80086312300B601B701FD2E20006E08013EB3
:100CF800F50000306F3DF60075088600760887001D
:100D0800083081004030F5000030F6006E0886009B
:100D18006F08870042317508C03F7608C13F6E08EA
:100D280086006F0887000C3081006E0886006F0807
:100D3800870081176A0886006B08870004308100E5
:100D48006A0886006B0887008117FD2EC01FAD2E2C
:100D5800AE2EC92E0130F50075082100ED002300E4
:100D68003508031DB82EB92EBC2E87319D27863134
:100D78002300B601B70122006408031DC42EC52E46
:100D8800FD2E8B31E9238631FD2E0230F5007508E2
:100D98002100ED0020006E08013EF50000306F3D97
:100DA800F600750886007608870008308100403014
:100DB800F5000030F6006E0886006F0887004231A3
:100DC8007508C03F7608C13F6E0886006F08870027
:100DD800043081006E0886006F08870081172300A1
:100DE800B601B70122006408031DFB2EFC2EFD2E60
:100DF800C52E0800200040081F39013A0319052FA5
:100E0800062F072F9C2F440803190B2F0C2F0D2F8B
:100E18009C2F06304106031D122F132F482F352F04
:100E280022006A03031D192F1A2F482F3C30200077
:100E3800E5009030E6000030E9000930E800C030F5
:100E4800F0007008E700482F0030E5009830E60011
:100E58000030E9001D30E800C030F0007008E700FD
:100E6800482F4308F000F1017108003A03193D2F9B
:100E7800482F7008213A0319142F033A0319282F11
:100E8800013A0319482F482F2000400E890C0339D6
:100E9800013A0319502F512F802F9C2FBD30E500A8
:100EA8000130E6000030E9000130E800C130F00010
:100EB8007008E7009C2F8030F0007008E7004308B6
:100EC800F00070082300BD009C2FBC30E500013005
:100ED800E6000030E9000130E8008130F0007008D9
:100EE800E7009C2F8030F0007008E7004208F0000F
:100EF80070082300BC009C2F4108F000F101710824
:100F0800003A0319882F9C2F7008013A03199C2F67
:100F1800033A0319522F013A0319692F0A3A0319A0
:100F28009C2F033A03195F2F013A0319762F9C2F40
:100F380008002300B501B401023021006D06031D2D
:100F4800A62FA72FCD2F20006E08013EF3000030FA
:100F58006F3DF4007308860074088700083081002C
:100F68004830F3000030F4006E0886006F088700F0
:100F780042317308C03F7408C13F6E0886006F088D
:100F88008700483081006E0886006F088700811747
:100F9800F82F200069084702031DD42F680846026D
:100FA8000318D72FD82FDC2F4708E9004608E80098
:100FB8008D31612587314830F3000030F40020007E
:100FC8006A0886006B08870042317308C03F7408BE
:100FD800C13F6A0886006B088700483081006A08AC
:100FE80086006B08870081170800640080010131C2
:060FF800890BFA2F003402
:101002000D3021009D004E302100E000EB30890BB5
:101012000828E00B082808003D001215EF302000D8
:10102200D60056083D0090058E1401302000D600EF
:1010320056082300B900B30175302000D0000030FB
:10104200D1000030D2000030D3000030D400D500EF
:101052008A31D4228831080022006808031D322810
:1010620033284D283D008E019201163091009F30A9
:1010720097007B309200210012150B178B17422824
:101082008E153D008E1D462847284128013021003B
:10109200E00060082200E80008002300B901743073
:1010A2002000D0000030D1000030D2000030D30048
:1010B2000030D400D5008A31D42288313D008E1010
:1010C20012116928FB302000D60056083D00900519
:1010D20010196C286D2863282300B3010800210031
:1010E2001D141430890B732821009D149D187A2831
:1010F2007B2877281C08E5001B08E4000D3021003E
:10110200E3002D30E200D730890B8528E20B8528D9
:10111200E30B8528003221006508E1006408E00045
:101122000800FC00771D962897289C28F0017C086F
:101132008A3146228831F71C9F28A028A628F00170
:10114200F00A7C088A31462288317C08983EF800F1
:10115200F9010E30F93D7808FA007908FB007A08A7
:1011620086007B088700770881000800F200C52806
:1011720022008E16DE2822000E16DE2822008E1590
:10118200DE2822000E17DE287208F000F101710835
:10119200003A0319CD28DE287008003A0319DE2828
:1011A200013A0319B928033A0319BC28013A031971
:1011B200BF28073A0319C228DE280800F200ED28EA
:1011C20022008E12062922000E12062922008E11FA
:1011D200062922000E1306297208F000F101710897
:1011E200003A0319F52806297008003A031906295E
:1011F200013A0319E128033A0319E428013A0319D1
:10120200E728073A0319EA28062908002100E20024
:10121200162922008E122F2922000E122F292200B7
:101222008E112F2922000E132F296208E000E101FE
:101232006108003A03191E292F296008003A031990
:101242002F29013A03190A29033A03190D29013AF0
:1012520003191029073A031913292F29080021001D
:10126200E2003F2922008E16582922000E16582924
:1012720022008E15582922000E1758296208E00014
:10128200E1016108003A0319472958296008003A28
:1012920003195829013A03193329033A0319362944
:1012A200013A03193929073A03193C295829080038
:1012B200F5007129FC3021009900903027009B0035
:1012C200103023008C008E01973194278931973199
:1012D20080278931842901308831DF2089318429AE
:1012E2007508F300F4017408003A03197929842976
:1012F2007308003A03195B29013A03196C29033A6E
:1013020003198429842908002100E5009D29FC3065
:101312009900903027009B00103023008C008E0132
:1013220097319F27893197318A278931B029013036
:10133200893107218931B0296508E300E401640895
:10134200003A0319A529B0296308003A031988292C
:10135200013A03199829033A0319B029B029080060
:101362003D00181CB529B629D92921006E0886002E
:10137200870180300106031DBF29C029D72920001B
:101382006A0886006B08870084300106031DCA299B
:10139200CB29D7290C30F00021006E088600870186
:1013A200700881006E088600870181173D001810C1
:1013B200DF30F000700890050800F8007108F600B0
:1013C2007008F5007808F4007408F900FF29750820
:1013D2008600760887000108F4007408F7000130DF
:1013E200F5070030F63D7708F4007908860087019A
:1013F200740881000130F4007408F9070130F20228
:101402000030F33B720A031D0A2A730A031D0A2ADB
:101412000B2AE8290800023021006D06031D122A5A
:10142200132A172A853103258A31452AED01230023
:101432003808031D1D2A1E2A442A20006E08013E78
:10144200F60000306F3DF7007608860077088700C7
:10145200083081004030F6000030F7006E08860048
:101462006F08870042317608C03F7708C13F6E0897
:1014720086006F0887000C3081006E0886006F08B6
:1014820087008117452AB8010800F5002030F100D5
:101492007108F6007008F1000130F135890B4E2A0F
:1014A2007508F2000130F235FF3E031D542A7235F1
:1014B2007107F3000130F335FF3E031D5C2A7335DB
:1014C200F4007408F6077608860087018113700815
:1014D200031D6C2A6D2A772A7535AB3E86000130D2
:1014E20087007608C03F0030C13F7F2A75356A3ECB
:1014F200860087017608C03F0030C13F760886002B
:10150200870101137608043E86008701011708004F
:101512002200E701E4012300B501B401B801210072
:10152200ED017F302000DF006A0886006B0887002B
:101532005F08810504306A06EA0000306B06EB00A2
:101542007F30DF006A0886006B0887005F0881052C
:1015520004306A06EA0000306B06EB007F30DF00E1
:101562006E0886006F0887005F088105E701E801C1
:10157200E9012300A201A301A4018C3163248A3171
:1015820003302000D0000030D1000030D200003003
:10159200D3000030D400D5008A31D4228A3186317A
:1015A2005B268A310800FB2A0130893159218A31B0
:1015B20001308831DF208A3102308831DF208A31E0
:1015C20003308831DF208A3104308831DF208A31CC
:1015D200232B0230893159218A31232B9731E2277B
:1015E2008A3101308831B7208A31232B8631FE2699
:1015F2008A31232B20005108003A0319042B7F3A29
:1016020003191E2B232B5008013A0319EF2A033A20
:101612000319232B013A0319F72A063A0319232B3C
:10162200773A0319232B013A0319232B073A03199B
:10163200EA2A013A0319D52A232B5008FF3A031943
:10164200232B232B08002D302000E000600822000D
:10165200E50021006F08FD39031D302B312B712B62
:101662006F363F392000E0000130E035FF3E031DB8
:10167200362B6035203EE10061082100EE006E0845
:101682002000EE00FF39031D0030EF0004306E062B
:10169200EE0000306F06EF0021006E088600870121
:1016A200010C890C0F390D3A031D582B592B6D2B48
:1016B2006E08023E86008701403FF000413FF10084
:1016C2000830F2000030F30040308931DE218B31E6
:1016D2008A3189228B317E2B8A310C228B317E2BEF
:1016E200FD306F052000E00004306006031D7A2BF8
:1016F2007B2B7E2B8C31E1248B3108002000C8012A
:10170200C901C62BE71723003A03031D892B8A2B35
:10171200DA2B2000C814DA2BE717DA2BE717440874
:101722000F39003A0319962B972BDA2BC41B9A2BED
:101732009B2BA72B44080F390907AB3E86000130CB
:101742008700403FF200413FF300B12B44080F39BC
:1017520009076A3E86008701403FF200413FF300DD
:101762007208860073088700811FB82BB92BDA2B09
:101772007208860073088700011DC02BC12BDA2B6B
:101782000130F0007008C800DA2B40081F39F00061
:10179200F1017108003A0319CF2BDA2B7008003AD5
:1017A2000319832B013A03198D2B033A03198F2B4B
:1017B200DA2B2000E71FDE2BDF2BE82B4830E50079
:1017C2000030E60067140230F0007008E8000800FC
:1017D20023003708031DEE2BEF2B622C0130F000A3
:1017E2007008B7003608031DF72BF82B622C013066
:1017F200F0007008B600023021006D06031D022CB5
:10180200032C162C20006A0886006B0887004131E1
:1018120081016A0886006B088700483081006A08E7
:1018220086006B0887008117622C6D03031D1A2C3A
:101832001B2C622C2300B8010830F00021006E0A34
:1018420086008701700881004030F0000030F1000E
:101852006E08023E860087017008C03F7108C13FD2
:101862000430F0006E0886008701700881006E085F
:101872008600870181170130F00070082300B8004C
:1018820020006E08013EF00000306F3DF10070084C
:10189200860071088700083081004030F000003077
:1018A200F1006E0886006F08870042317008C03F61
:1018B2007108C13F6E0886006F0887008030810082
:1018C200622C08002000400E890C0339003A0319EB
:1018D2006B2C6C2CB52CE02CE7170830DD005D0872
:1018E2002200E800E02C8D31E4258C31E02C8F3190
:1018F20076278C31E02C6A30E5000130E60067146F
:101902000130DD005D08E800E717E02C8B317F2312
:101912008C31E02C80312D208C31E02C4408693E42
:10192200E5000130E60067140130DD005D08E800E3
:10193200E717E02CE7174208DD004408693E8600FD
:10194200013087005D088100E02C0230D0000030B9
:10195200D1000030D2000030D3000030D400D500D6
:101962008A31D4228C31E02C4108DD00DE015E0890
:10197200003A0319BD2CE02C5D08003A0319872CAC
:10198200013A03198B2C023A03198B2C063A0319DC
:101992006D2C033A0319742C013A0319A62C0F3A41
:1019A20003197C2C013A0319782C033A03198F2C62
:1019B200013A03199B2C073A0319E02CE02C08008A
:1019C20020006A0886006B0887000030011B013086
:1019D200F50004306A06EA0000306B06EB000830BE
:1019E20022006806031DF62CF72C0C2D200042085D
:1019F2007F393D00960016080319002D012D072D91
:101A02001030F30073082200E8000C2D0430F300BC
:101A120073082200E80021006D03031D112D122D11
:101A2200562D4830F3000030F40020006A0886008A
:101A32006B08870042317308C03F7408C13F8D3183
:101A420061258C31023022006706031D292D2A2DC3
:101A5200372D20006A0886006B0887000430810059
:101A62006A0886006B0887008117602D7508031DC0
:101A72003B2D3C2D492D20006A0886006B0887000B
:101A8200483081006A0886006B0887008117602D44
:101A920020006A0886006B088700083081006A0807
:101AA20086006B0887008117602D2300A21F5A2D24
:101AB2005B2D5E2D25082608A2132100ED010800EA
:101AC2000830F0007008F20000302000690208308F
:101AD2000319680203186E2D6F2D872D6808F00018
:101AE2007008F20022006708031D782D792D7E2DE3
:101AF2000130F0007008E700872D6703031D822D77
:101B0200832D872D0230F0007008E7007208F00084
:101B1200F10170082000E8027108E93B6A08013E01
:101B2200F00000306B3DF1007008860071088700FC
:101B3200720881004830F00070082300BB002000CA
:101B42006718A42DA52DDE2DBF2D20006508840069
:101B5200660885000008F00023003B088600870124
:101B62007008810001302000E5070030E63D0130B9
:101B7200F00070082300BB070130F2027208031D57
:101B8200C32DC42DA62DE32D200065088400660810
:101B920085000008F00023003B08860087017008DA
:101BA200810001302000E5070030E63D0130F00001
:101BB20070082300BB070130F2027208031DE22DF8
:101BC200E32DC52D0800803020004006031DEA2DBC
:101BD200EB2D662EC030F0007008E700532E1D304A
:101BE200E5009830E6000030E9001230E800662E89
:101BF2004208031DFD2DFE2D2C2E4208F000F1019E
:101C0200F035F10D3930700784009830713D850050
:101C1200003FE500013FE6006608F1006508F000BC
:101C220002307007840071080318710A85000008E9
:101C3200F2007208E8006608F1006508F00003305F
:101C42007007840071080318710A85000008F20009
:101C52007208E900662EE701662E0330420203187D
:101C6200332E342E4F2E4208F000F101F035F10DE3
:101C72002F30700784009830713D8500003FE500E9
:101C8200013FE60065088400660885000008F00050
:101C9200F1017008E8007108E900662EE701662E7E
:101CA200E701662E4308F000F1017108003A0319BA
:101CB2005B2E512E7008013A0319F02D033A0319D5
:101CC200F92D013A03192E2E512E0800F800700842
:101CD20003196C2E6D2E762E78356A3E86008701AA
:101CE200403FF900413FFA007F2E7835AB3E860037
:101CF20001308700403FF900413FFA0079087A0439
:101D0200031D842E852E882EF001F101ED2EFF3069
:101D12007105F4007F307205F500790886007A08B3
:101D2200870042317408C03F7508C13F7908013EFF
:101D3200F40000307A3DF5007408860075088700CB
:101D4200730881004030F400790886007A08870021
:101D520074088105790886007A0887008115790858
:101D620086007A088700811770080319B92EBA2EE7
:101D7200D12E78356A3E86008701403FF400413F0C
:101D8200F50004307406F60000307506F700783569
:101D92006A3E860087017608C03F7708C13FE92E78
:101DA2007835AB3E860001308700403FF400413F6A
:101DB200F50004307406F60000307506F700783539
:101DC200AB3E8600013087007608C03F7708C13FEE
:101DD2007A08F1007908F00008002100E8006008A4
:101DE2000319F42EF52EFE2E68356A3E8600870111
:101DF200403FE900413FEA00072F6835AB3E8600CD
:101E020001308700403FE900413FEA0069086A0467
:101E1200031D0C2F0D2F102FE001E101752FFF3054
:101E22006105E4007F306205E500690886006A0802
:101E3200870042316408C03F6508C13F6908013E1E
:101E4200E40000306A3DE50064088600650887000A
:101E5200630881004030E400690886006A08870050
:101E620064088105690886006A0887008115690887
:101E720086006A088700811760080319412F422FE4
:101E8200592F68356A3E86008701403FE400413F92
:101E9200E50004306406E60000306506E7006835B8
:101EA2006A3E860087016608C03F6708C13F712FFE
:101EB2006835AB3E860001308700403FE400413F79
:101EC200E50004306406E60000306506E700683588
:101ED200AB3E8600013087006608C03F6708C13FFD
:101EE2006A08E1006908E00008002000E7170E30E8
:101EF200D8009930D700D9015708860058088700C2
:101F020081010130D7070030D83D0130D600560894
:101F1200D907590803198E2F8F2F7D2F2030F000FB
:101F22000030F1000030F200F3002030F400003005
:101F3200F500833186238F313D000E172000DA0130
:101F42005A08623E86000130870081015A08603ECD
:101F520086000130870081010130D6005608DA0779
:101F620002305A02031CB62FB72FA12F6930F0009E
:101F72000130F1000030F200F3000130F4000030D3
:101F8200F500833186238F313D000E132830200067
:101F9200EA000030EB002030D60056082100EE00A7
:101FA2006E082000EE00FF39031D0030EF004208EA
:101FB200D60056082200EA006A08031DE12FE22F2C
:101FC200E92F10302000D60056082200E800FF2F2B
:101FD20001302000D0000030D1006A30D200013040
:101FE200D3000130D4000030D5008A31D4228F31A1
:101FF20020302000D60056082200E80008002A34CB
:102002000334413400346C340034633400346F34AC
:102012000034683400346F3400346C3400342034BB
:102022000034443400347234003469340034763479
:1020320000346534003420340034413400344C34EC
:10204200003443340034303400343034003431341A
:1020520000340934023429340034013401340034A8
:10206200C0343234093404340034003402340334CA
:102072000034003400340934213411340134003482
:10208200013422341D3400340734053481340334DE
:10209200403400340134073405340134033440340D
:1020A20000340134223403344734003465340034BC
:1020B2006F340034723400346734003465340034D1
:1020C2002034003454340034653400346334003432
:1020D2006834003420340034493400346E3400341F
:0820E200633400342E34003495
:102F000021008C160C169D01E0309E009731AA27F7
:102F10009731080021008C160C169D01E0309E00B0
:102F2000883101209731080021008E120E128E1177
:102F30000E1322008E120E128E110E1308002100A5
:102F40008E120E128E110E1322008E120E128E1180
:102F50000E1308000D3021009D004E30F000EB30C4
:102F6000890BB02FF00BB02F000008000030893122
:102F70008521973184315024973188312D20973124
:102F80008231A9229731C02F80310B2801302300D4
:102F9000A7070030A83D0030A93D0030AA3D390800
:102FA000031DD32FD42FE12F0130F0007008B30799
:102FB0003308031DDC2FDD2FE12FFF30F0007008F8
:102FC000B30008002300AF01B0011E30FD007D08F2
:102FD000F7000130883192209731F001A030F100E4
:102FE0000030F2004030FD007D08F30001308E31EA
:102FF0006726973171082300B2007008B1000800FD
:1030000006340034FF3409340134A1340134193456
:10301000013429344034153400342634FF3400346C
:103020007534083495344034813400341934013413
:103030002934403491340034C03412340134003423
:1030400002340034003400340834D83404343F34BB
:103050000034003401340134023400340134353496
:1030600098345334903400349034043403340934A5
:0630700004342A34903400
:020000040001F9
:04000E00A40FCF1F4D
:00000001FF
