:0400000080310B2818
:100008007E1480318131832180317E100900803156
:100018000D2865308400003085000B3089311E21A1
:1000280080312100ED01EE01EF01603084000130E4
:100038008500103089311E218031A03084000130C4
:100048008500193089311E2180317E1020008931C8
:10005800242920004203031D322833284928400858
:100068001F39003A031D39283A284928E717033071
:100078004106031D4028412847280130D60056086C
:100088002300B50049282300B50120004208031DBC
:100098004E284F28822940081F39023A031D552847
:1000A8005628822944080F39003A03195C285D282C
:1000B800822944080F39D6000230560203186528F1
:1000C80066288229203021006E06031D6C286D28C1
:1000D80082292000E717C41B72287328892844083E
:1000E8000F390907A43E860001308700403FDB0036
:1000F800413FDC0044080F39A83E860001308700E4
:100108000108D6005608DA009D2844080F39090767
:100118006A3E86008701403FDB00413FDC0044081F
:100128000F39673E8600013087000108D60056085F
:10013800DA005A18A028A128AC28FB30D600FF30D6
:10014800D7005B085605DB005C085705DC00B228C1
:1001580004305B04DB0000305C04DC00C41BB52801
:10016800B628C22844080F390907A43E8600013082
:1001780087005B08C03F5C08C13FCC2844080F39A2
:1001880009076A3E860087015B08C03F5C08C13FDB
:1001980003304106031DD128D228F8285B088600C1
:1001A8005C088700811FD928DA28ED28C41BDD28C0
:1001B800DE28E62844080F39A83E8600013087006B
:1001C8008114ED2844080F39673E86000130870006
:1001D80081145B0886005C08870001155B088600AF
:1001E8005C0887008117822904305B06DB00003039
:1001F8005C06DC005B0886005C088700811F052917
:10020800062923297F30D6005B0886005C08870012
:10021800560881055B0886005C08870001170530D1
:10022800D0000030D1005C08D3005B08D200023057
:10023800D4000030D5008A319A22803128295B0801
:1002480086005C0887000117043020005B06DB008D
:1002580000305C06DC00DA18322933293B295B08B8
:1002680086005C088700811F3A293B296629C41B40
:100278003E293F29472944080F39A83E8600013006
:10028800870081104E2944080F39673E86000130E7
:10029800870081103B30D6005B0886005C08870029
:1002A800560881050530D0000030D1005C08D30025
:1002B8005B08D2000230D4000030D5008A319A227F
:1002C80080316E293B30D6005B0886005C088700C9
:1002D80056088105200044080F39983ED600D701FA
:1002E8000E30D73D5608D8005708D900FE30D60042
:1002F800580886005908870056088105080021001B
:100308006E03031D8829892997293D008E1A8D2996
:100318008E29972990011214121602302000E2004B
:1003280062082100EE003D00101D9B299C29A92987
:10033800121D9F29A029A929FB302000E20062088C
:100348003D0090058931EC2181313D008E1CAD299D
:10035800AE29B12920001211A82A101CB429B529E8
:10036800CA29121CB829B929CA298431D42481314F
:100378002100121504302000E20062082100EE007E
:10038800FE302000E20062083D009005101ECD29D5
:10039800CE29D529121ED129D229D5298931AC21B6
:1003A80081313D00101FD929DA29072A121FDD29BA
:1003B800DE29EE2973302000D0000030D100003053
:1003C800D2000030D3000130D4000030D5008A318B
:1003D8009A228131BF302000E20062083D0090057A
:1003E80089313821813122006A080319FC29FD2945
:1003F800FF290130EA026A08031D032A042A072A92
:100408008C31FD2481313D00901E0B2A0C2A132AC1
:10041800921E0F2A102A132A8A31332281313D0075
:10042800901C172A182A2E2A921C1B2A1C2A2E2AAC
:10043800FF302000D0007F30D1000030D2000030E3
:10044800D3000130D4000030D5008A319A2281319E
:100458003D009301043021006E020318342A352A26
:10046800382A20001211A82A3D00921D3C2A3D2A54
:10047800A62A2000E4013D00901D432A442AA62A0A
:100488000F082000E20062082100EF006F0C200036
:10049800E200E20C620C0F39E30063082200EB0073
:1004A800F7302000E20062083D00900521006F1936
:1004B8005E2A5F2A712A22006B08A83E8600013056
:1004C8008700010801392000E2000130E206010836
:1004D8006206FE3962068100822A22006B08673EA6
:1004E800860001308700010801392000E200013050
:1004F800E20601086206FE396206810022006B08E6
:10050800031D872A882A8C2A8B31642381319B2AF0
:1005180072302000D0000030D100EF30D20000301F
:10052800D3000030D400D5008A319A2281310130BD
:100538002000E2006208E40704306402031CA52AD4
:10054800A62A3F2A2000121108007108FD00700831
:10055800FC0074087504031DB22AB32AB42A722B4E
:100568007C0886007D0887007208810074087C0773
:10057800F60075087D3DF7007608FF3EF800FF306D
:10058800773DF900780886007908870072088100AD
:10059800003075020330031974020318D42AD52ACF
:1005A800D62A722B7C08013EF60000307D3DF7000C
:1005B8007608860077088700720881007C08023E6A
:1005C800F60000307D3DF700760886007708870042
:1005D8007208810074087C07F60075087D3DF700F5
:1005E8007608FE3EF800FF30773DF900780886006F
:1005F800790887007208810074087C07F60075087E
:100608007D3DF7007608FD3EF800FF30773DF900A4
:100618007808860079088700720881000030750222
:1006280007300319740203181A2B1B2B1C2B722B6F
:100638007C08033EF60000307D3DF7007608860012
:10064800770887007208810074087C07F60075082F
:100658007D3DF7007608FC3EF800FF30773DF90055
:1006680078088600790887007208810000307502D2
:100678000930031974020318422B432B442B722BA5
:100688007C09F6007D09F700F60A0319F70A03301A
:100698007605FA0000307705FB007A08FC077B082E
:1006A800FD3D7A08F4027B08F53BFC30F405FF3089
:1006B800F5056C2B7C0886007D0887007208810090
:1006C8000130F4020030F53B0130FC070030FD3DFD
:1006D80074087504031D712B722B5E2B0800210012
:1006E80012113D009301900198010E302100E200A3
:1006F8009930E100E3016108860062088700810102
:100708000130E1070030E23D0130E0006008E30716
:1007180063080319902B912B7F2B16303D00910015
:100728009F3097007B3092002100E4016408E000CC
:100738000130E035FF3E031D9D2B6035203E8600CD
:1007480087010030C03F0030C13FC23FC33F013086
:10075800E0006008E40708306402031CB42BB52BE2
:100768009A2B3D000E1796010E120E13F73021003A
:10077800E00060083D0090052000E7012200E2014A
:10078800E301E4013D009019CA2BCB2BBA2B0130B1
:100798002100E00060082300B20001302100E000E1
:1007A80060082300B100B001AF01B4012100E401E9
:1007B80064356A3E860087010030C03FC13F64351A
:1007C800A43E8600013087000030C03FC13F640866
:1007D800673E86000130870081016408A83E8600D4
:1007E8000130870081010130E0006008E407023031
:1007F8006402031C002C012CDC2B28302000EA00AA
:100808000030EB0016303D00980000302000A300B7
:100818004030A2000830A10004302100E000600848
:100828002000A000A0172200EF0100302300A30041
:100838000030A2000030A1000030A000AE0121006D
:10084800EE01080021006D0886008701413FF50090
:100858007508F200F301730822006402031D362CA8
:10086800720863020318392C3A2C3E2C6308F200F4
:100878007208F5007508F200F3017208E3027308C4
:10088800E43BF4015A2C7408483E860087010108AD
:10089800F200600886008701720881000130F200CA
:1008A8007208E0070130F2007208F4077508740254
:1008B800031C5F2C602C472C630864040319652C07
:1008C800662CA22C20006E08013EF20000306F3D1D
:1008D800F3007208860073088700083081004830EA
:1008E800F2000030F3006E0886006F08870042317E
:1008F8007208C03F7308C13F21006D088600870158
:10090800011B872C882C952C20006E0886006F0808
:100918008700483081006E0886006F0887008117BD
:10092800D32C20006E0886006F08870008308100ED
:100938006E0886006F0887008117D32C20006E0888
:10094800013EF20000306F3DF30072088600730824
:100958008700083081004030F2000030F3006E0854
:1009680086006F08870042317208C03F7308C13F94
:100978006E0886006F088700043081006E088600C4
:100988006F0887008117220065086608E213690866
:10099800031DCF2CD02CD32C8C31FD24843108009E
:1009A800210012113D009301900198010E30F200D0
:1009B8009930F100F30171088600720887008101FF
:1009C8000130F1070030F23D0130F0007008F30704
:1009D80073080319F02CF12CDF2C16303D00910020
:1009E8009F3097007B309200F4017408F0000130CA
:1009F800F035FF3E031DFC2C7035203E8600870134
:100A08000030C03F0030C13FC23FC33F0130F0005B
:100A18007008F40708307402031C132D142DF92CE8
:100A28003D000E1796010E120E13F730F0007008F5
:100A380090052000E7012200E201E301E4013D0006
:100A48009019272D282D192D0130F000700823004A
:100A5800B2000130F0007008B100B001AF01B4017C
:100A6800F40174356A3E860087010030C03FC13FFB
:100A78007435A43E8600013087000030C03FC13F76
:100A88007408673E86000130870081017408A83E1B
:100A980086000130870081010130F0007008F407FA
:100AA80002307402031C592D5A2D352D2830200090
:100AB800EA000030EB0016303D00980000302000BE
:100AC800A3004030A2000830A1000430F0007008F4
:100AD800A000A0172200EF0100302300A30000307F
:100AE800A2000030A1000030A000AE012100EE01FC
:100AF80008003D000E122000E71B832D842DCB2D0E
:100B08002200E21F882D892D9A2D0230F5007508E4
:100B1800EC0023002F08031D922D932D962D8B3169
:100B2800BF2385312300B101B2011E2E20006E08BB
:100B3800013EF50000306F3DF60075088600760826
:100B48008700083081004030F5000030F6006E085C
:100B580086006F08870042317508C03F7608C13F9C
:100B68006E0886006F0887000C3081006E088600CA
:100B78006F08870081176A0886006B0887000430B1
:100B880081006A0886006B08870081171E2EC01F27
:100B9800CE2DCF2DEA2D0130F50075082200EC008E
:100BA80023003008031DD92DDA2DDD2D8B31BF230D
:100BB80085312300B101B20122006908031DE52D2A
:100BC800E62D1E2E8C31FD2485311E2E0230F500B7
:100BD80075082200EC0020006E08013EF500003088
:100BE8006F3DF6007508860076088700083081009A
:100BF8004030F5000030F6006E0886006F08870068
:100C080042317508C03F7608C13F6E0886006F08FC
:100C18008700043081006E0886006F0887008117FE
:100C28002300B101B20122006908031D1C2E1D2EEC
:100C38001E2EE62D0800200040081F39013A03192E
:100C4800262E272E282EBD2E440803192C2E2D2E95
:100C58002E2EBD2E06304106031D332E342E692E4E
:100C6800562E22006F03031D3A2E3B2E692E743038
:100C78002000E5009030E6000030E9000930E80087
:100C8800C030F0007008E700692E8B30E500903026
:100C9800E6000030E9001D30E800C030F0007008C0
:100CA800E700692E4308F000F1017108003A0319C2
:100CB8005E2E692E7008213A0319352E033A03195E
:100CC800492E013A0319692E692E2000400E890C1D
:100CD8000339013A0319712E722EA12EBD2EB83098
:100CE800E5000130E6000030E9000130E800C130DD
:100CF800F0007008E700BD2E8030F0007008E700B3
:100D08004308F00070082300B800BD2EB730E50096
:100D18000130E6000030E9000130E8008130F000E1
:100D28007008E700BD2E8030F0007008E700420828
:100D3800F00070082300B700BD2E4108F000F10153
:100D48007108003A0319A92EBD2E7008013A03193B
:100D5800BD2E033A0319732E013A03198A2E0A3A53
:100D68000319BD2E033A0319802E013A0319972E51
:100D7800BD2E08002000E7170E30D8009930D700A4
:100D8800D901570886005808870081010130D70724
:100D98000030D83D0130D6005608D9075908031944
:100DA800D62ED72EC52E2030F0000030F1000030AE
:100DB800F200F3002030F4000030F5008231A9225F
:100DC80086313D000E172000DA015A08673E86007A
:100DD8000130870081015A08A83E8600013087004B
:100DE80081010130D6005608DA0702305A02031C86
:100DF800FE2EFF2EE92E6E30F0000130F10000309B
:100E0800F200F3000130F4000030F5008231A9222D
:100E180086313D000E1328302000EA000030EB0038
:100E28002030D60056082100ED006D082000EE00A5
:100E3800FF39031D0030EF004208D6005608220093
:100E4800EF006F08031D292F2A2F312F10302000A3
:100E5800D60056082100EE00472F01302000D000B0
:100E68000030D1006F30D2000130D3000130D400FF
:100E78000030D5008A319A22863120302000D600F1
:100E880056082100EE0008002100E8006008031958
:100E98004E2F4F2F582F68356A3E86008701403FF6
:100EA800E900413FEA00612F6835A43E8600013021
:100EB8008700403FE900413FEA0069086A04031DD2
:100EC800662F672F6A2FE001E101CF2FFF30610500
:100ED800E4007F306205E500690886006A0887003B
:100EE80042316408C03F6508C13F6908013EE4001B
:100EF80000306A3DE50064088600650887006308DD
:100F080081004030E400690886006A0887006408A8
:100F18008105690886006A088700811569088600C6
:100F28006A0887008117600803199B2F9C2FB32F2D
:100F380068356A3E86008701403FE400413FE5008E
:100F480004306406E60000306506E70068356A3E4E
:100F5800860087016608C03F6708C13FCB2F683508
:100F6800A43E860001308700403FE400413FE50091
:100F780004306406E60000306506E7006835A43EE4
:100F88008600013087006608C03F6708C13F6A08CD
:100F9800E1006908E0000800F8007108F600700830
:100FA800F5007808F4007408F900F12F7508860038
:100FB800760887000108F4007408F7000130F50787
:100FC8000030F63D7708F400790886008701740838
:100FD80081000130F4007408F9070130F202003092
:100FE800F33B720A031DFC2F730A031DFC2FFD2F10
:040FF800DA2F0800E4
:10123C00640080010131890B1F2900340030893191
:10124C00712189318331732389318931CC218931E1
:10125C0023008C0121008C018C31852489313229A9
:10126C0080310B2801302300A0070030A13D003055
:10127C00A23D0030A33D3408031D452946295329BE
:10128C000130F0007008AE072E08031D4E294F29BF
:10129C005329FF30F0007008AE000800F2005D2901
:1012AC00FC3021009900903027009B0070297208B7
:1012BC00F000F1017108003A0319652970297008D2
:1012CC00003A03195629013A03197029033A0319F4
:1012DC007029702908002100E2007A29FC3099005D
:1012EC00903027009B008D296208E000E101610825
:1012FC00003A031982298D296008003A03197429D0
:10130C00013A03198D29033A03198D298D290800F7
:10131C002300AA01AB011E30FD007D08F70001304F
:10132C008A310E228931F001A030F1000030F20038
:10133C004030FD007D08F30001308F317927893171
:10134C0071082300AD007008AC0008003D001215B8
:10135C00EF302000D60056083D0090058E14013069
:10136C002000D60056082300B400AE0175302000D2
:10137C00D0000030D1000030D2000030D30000305B
:10138C00D400D5008A319A228931080021006E08D8
:10139C00031DD129D229EB293D008E019201163073
:1013AC0091009F3097007B309200210012150B1793
:1013BC008B17E1298E153D008E1DE529E629E029C4
:1013CC0001302100E0006008EE0008002300B401A9
:1013DC0074302000D0000030D1000030D20000303A
:1013EC00D3000030D400D5008A319A2289313D00D7
:1013FC008E101211072AFB302000D60056083D0033
:10140C00900510190A2A0B2A012A2300AE010800A4
:10141C00FC00771D122A132A182AF0017C088A3145
:10142C00D6228A31F71C1B2A1C2A222AF001F00A28
:10143C007C088A31D6228A317C08983EF800F90162
:10144C000E30F93D7808FA007908FB007A0886001E
:10145C007B0887007708810008003D00181C372A9C
:10146C00382A5B2A21006D0886008701803001062E
:10147C00031D412A422A592A20006A0886006B085B
:10148C00870084300106031D4C2A4D2A592A0C3042
:10149C00F00021006D0886008701700881006D083E
:1014AC008600870181173D001810DF30F0007008AE
:1014BC0090050800023022006C06031D662A672A7C
:1014CC006B2A843126248A31992AEC0123003308B3
:1014DC00031D712A722A982A20006E08013EF6001C
:1014EC0000306F3DF70076088600770887000830DB
:1014FC0081004030F6000030F7006E0886006F085F
:10150C00870042317608C03F7708C13F6E088600DD
:10151C006F0887000C3081006E0886006F0887000A
:10152C008117992AB3010800AD2A01308931542161
:10153C008A31D52A0230893154218A31D52A893110
:10154C008E218A31D52A86311F268A31D52A200050
:10155C005108003A0319B62A7F3A0319D02AD52A22
:10156C005008013A0319A52A033A0319D52A013A5E
:10157C000319A92A063A0319D52A773A0319D52A49
:10158C00013A0319D52A073A0319A02A013A03197B
:10159C009B2AD52A5008FF3A0319D52AD52A0800C8
:1015AC00F5002030F1007108F6007008F1000130F0
:1015BC00F135890BDE2A7508F2000130F235FF3E59
:1015CC00031DE42A72357107F3000130F335FF3E39
:1015DC00031DEC2A7335F4007408F60776088600B0
:1015EC00870181137008031DFC2AFD2A072B753512
:1015FC00A43E8600013087007608C03F0030C13F12
:10160C000F2B75356A3E860087017608C03F003087
:10161C00C13F76088600870101137608043E8600D8
:10162C008701011708002200ED01E9012300B00138
:10163C00AF01B3012200EC017F302000DF006A080B
:10164C0086006B0887005F08810504306A06EA0093
:10165C0000306B06EB007F30DF006A0886006B08F9
:10166C0087005F08810504306A06EA0000306B06CB
:10167C00EB007F30DF006E0886006F0887005F0884
:10168C008105E701E801E9012200E201E301E4013F
:10169C008D31F5258B3103302000D0000030D10086
:1016AC000030D2000030D3000030D400D5008A3195
:1016BC009A228B3185317D258B3108002D3020000D
:1016CC00E00060082200EA0021006F08FD39031DCC
:1016DC00702B712BB12B6F363F392000E00001309D
:1016EC00E035FF3E031D762B6035203EE10061089E
:1016FC002100ED006D082000EE00FF39031D0030C5
:10170C00EF0004306E06EE0000306F06EF00210093
:10171C006D0886008701010C890C0F390D3A031DE9
:10172C00982B992BAD2B6D08023E86008701403F0C
:10173C00F000413FF1000830F2000030F30040307F
:10174C008731D0278B318B3119238B31BE2B8A31CA
:10175C0060228B31BE2BFD306F052000E000043081
:10176C006006031DBA2BBB2BBE2B8D3177258B311D
:10177C0008002300B001AF01023022006C06031DEB
:10178C00C82BC92BEF2B20006E08013EF300003054
:10179C006F3DF400730886007408870008308100E0
:1017AC004830F3000030F4006E0886006F088700A4
:1017BC0042317308C03F7408C13F6E0886006F0841
:1017CC008700483081006E0886006F0887008117FB
:1017DC001A2C200069084702031DF62B68084602E4
:1017EC000318F92BFA2BFE2B4708E9004608E800F2
:1017FC008E3173268B314830F3000030F40020001A
:10180C006A0886006B08870042317308C03F740871
:10181C00C13F6A0886006B088700483081006A085F
:10182C0086006B088700811708002000C801C901D9
:10183C00622CE71723003503031D252C262C762C50
:10184C002000C814762CE717762CE71744080F39BC
:10185C00003A0319322C332C762CC41B362C372C23
:10186C00432C44080F390907A43E86000130870039
:10187C00403FF200413FF3004D2C44080F3909075B
:10188C006A3E86008701403FF200413FF300720838
:10189C00860073088700811F542C552C762C7208F7
:1018AC00860073088700011D5C2C5D2C762C0130A2
:1018BC00F0007008C800762C40081F39F000F101C8
:1018CC007108003A03196B2C762C7008003A031936
:1018DC001F2C013A0319292C033A03192B2C762CB3
:1018EC002000E71F7A2C7B2C842C4830E50000303C
:1018FC00E60067140230F0007008E80008002030A1
:10190C0021006E0203188B2C8C2C8D2CFC2C3D0092
:10191C008E1C912C922C932CFC2C23002C082D0427
:10192C000319992C9A2CD82C2C0886002D0887008A
:10193C00811BA12CA22CFC2CD82C23002A082B04B4
:10194C000319A92CAA2CB22C2A0886002B08870074
:10195C00811BB12CB22CE62C20302100EB006B0843
:10196C0022008C0681302100EB006B082200A000C5
:10197C00A101A10A2100E001E00A2030E1000130C0
:10198C00E2004030EB006B08E30001308731482760
:10199C008C31210061082300AB002100600823007A
:1019AC00AA00E62C21002008EB00EC016C08003AA0
:1019BC000319E12CE62C6B08803A0319A32CE62CB6
:1019CC002100E001A030E1000030E2004030EB00EB
:1019DC006B08E3000130873148278C312100610806
:1019EC002300AD00210060082300AC000800230098
:1019FC003208031D022D032D762D0130F0007008E6
:101A0C00B2003108031D0B2D0C2D762D0130F0008A
:101A1C007008B100023022006C06031D162D172D24
:101A2C002A2D20006A0886006B088700413181014D
:101A3C006A0886006B088700483081006A088600B7
:101A4C006B0887008117762D6C03031D2E2D2F2D0F
:101A5C00762D2300B3010830F00021006D0A8600BA
:101A6C008701700881004030F0000030F1006D08F3
:101A7C00023E860087017008C03F7108C13F0430E8
:101A8C00F0006D0886008701700881006D088600E3
:101A9C00870181170130F00070082300B30020008B
:101AAC006E08013EF00000306F3DF10070088600BA
:101ABC0071088700083081004030F0000030F100E0
:101ACC006E0886006F08870042317008C03F7108AD
:101ADC00C13F6E0886006F08870080308100762D2C
:101AEC00080020006A0886006B0887000030011B84
:101AFC000130F50004306A06EA0000306B06EB009A
:101B0C00083021006E06031D8C2D8D2DA22D20007A
:101B1C0042087F393D00960016080319962D972D23
:101B2C009D2D1030F30073082100EE00A22D04301F
:101B3C00F30073082100EE0022006C03031DA72D97
:101B4C00A82DEC2D4830F3000030F40020006A087A
:101B5C0086006B08870042317308C03F7408C13F90
:101B6C008E3173268D31023022006D06031DBF2D80
:101B7C00C02DCD2D20006A0886006B08870004302C
:101B8C0081006A0886006B0887008117F42D7508A0
:101B9C00031DD12DD22DDF2D20006A0886006B0885
:101BAC008700483081006A0886006B08870081171F
:101BBC00F42D20006A0886006B088700083081002D
:101BCC006A0886006B0887008117F42DE21FEF2D41
:101BDC00F02DF32D65086608E213EC0108002000D7
:101BEC00400E890C0339003A0319FD2DFE2D472EAA
:101BFC00722EE7170830DD005D082100EE00722E12
:101C0C008E31F6268D31722E8631BE268D31722E96
:101C1C006F30E5000130E60067140130DD005D082F
:101C2C00E800E717722E8C311B248D31722E803117
:101C3C002D208D31722E44086E3EE5000130E600F9
:101C4C0067140130DD005D08E800E717722EE71716
:101C5C004208DD0044086E3E8600013087005D08B6
:101C6C008100722E0230D0000030D1000030D20042
:101C7C000030D3000030D400D5008A319A228D3147
:101C8C00722E4108DD00DE015E08003A03194F2E6A
:101C9C00722E5D08003A0319192E013A03191D2EF4
:101CAC00023A03191D2E063A0319FF2D033A0319A4
:101CBC00062E013A0319382E0F3A03190E2E013A4B
:101CCC0003190A2E033A0319212E013A03192D2E5A
:101CDC00073A0319722E722E08000830F0007008B3
:101CEC00F200003020006902083003196802031862
:101CFC00802E812E992E6808F0007008F2002200C8
:101D0C006D08031D8A2E8B2E902E0130F00070086A
:101D1C00ED00992E6D03031D942E952E992E0230F5
:101D2C00F0007008ED007208F000F101700820005E
:101D3C00E8027108E93B6A08013EF00000306B3D97
:101D4C00F100700886007108870072088100483025
:101D5C00F00070082300B60020006718B62EB72ECE
:101D6C00F02ED12E2000650884006608850000083E
:101D7C00F0002300360886008701700881000130CE
:101D8C002000E5070030E63D0130F000700823002C
:101D9C00B6070130F2027208031DD52ED62EB82ECE
:101DAC00F52E200065088400660885000008F00008
:101DBC00230036088600870170088100013020005E
:101DCC00E5070030E63D0130F00070082300B6074F
:101DDC000130F2027208031DF42EF52ED72E0800E6
:101DEC00803020004006031DFC2EFD2E782FC030C5
:101DFC00F0007008E700652FA830E5009030E60091
:101E0C000030E9001230E800782F4208031D0F2F34
:101E1C00102F3E2F4208F000F101F035F10DC430C7
:101E2C00700784009030713D8500003FE500013F54
:101E3C00E6006608F1006508F000023070078400C7
:101E4C0071080318710A85000008F2007208E80096
:101E5C006608F1006508F000033070078400710813
:101E6C000318710A85000008F2007208E900782F47
:101E7C00E701782F033042020318452F462F612FBC
:101E8C004208F000F101F035F10DBA307007840012
:101E9C009030713D8500003FE500013FE60065088C
:101EAC008400660885000008F000F1017008E80065
:101EBC007108E900782FE701782FE701782F4308A4
:101ECC00F000F1017108003A03196D2F632F7008AF
:101EDC00013A0319022F033A03190B2F013A031984
:101EEC00402F632F0800F800700803197E2F7F2FF6
:101EFC00882F78356A3E86008701403FF900413FC4
:101F0C00FA00912F7835A43E860001308700403FBF
:101F1C00F900413FFA0079087A04031D962F972F98
:101F2C009A2FF001F101FF2FFF307105F4007F3083
:101F3C007205F500790886007A088700423174082A
:101F4C00C03F7508C13F7908013EF40000307A3D6E
:101F5C00F50074088600750887007308810040300E
:101F6C00F400790886007A088700740881057908DE
:101F7C0086007A0887008115790886007A08870020
:101F8C00811770080319CB2FCC2FE32F78356A3EBD
:101F9C0086008701403FF400413FF5000430740691
:101FAC00F60000307506F70078356A3E860087012A
:101FBC007608C03F7708C13FFB2F7835A43E8600DA
:101FCC0001308700403FF400413FF50004307406B7
:101FDC00F60000307506F7007835A43E8600013017
:101FEC0087007608C03F7708C13F7A08F10079086E
:101FFC00F0000800343403344D34003469340034B8
:10200C0063340034723400346F340034633400347D
:10201C0068340034693400347034003420340034B3
:10202C005434003465340034633400346834003480
:10203C006E3400346F3400346C3400346F3400343C
:10204C00673400347934003420340034493400349B
:10205C006E340034633400342E3400342E340334A4
:10206C0053340034693400346D340034703400342B
:10207C006C3400346534003420340034483400347B
:10208C0049340034443400342034003444340034B3
:10209C0065340034763400346934003463340034ED
:1020AC006534003420340034443400346534003456
:1020BC006D3400346F340034093402342934003464
:1020CC00013401340034C034323409340434003463
:1020DC000034023403340034003400340934213425
:1020EC00113401340034013422341D3400340734EB
:1020FC00053481340334403400340134073405345E
:10210C000134033440340034013406340034FF34D9
:10211C0009340134A13401341934013429344034E4
:10212C00153400342634FF340034753408349534B7
:10213C00403481340034193401342934403491341E
:10214C000034C0341234013400340234003400340E
:10215C0000340834D83404343F34003400340134AF
:10216C000134023400340134C034903400349034DF
:10217C0034349034043403340934043462349034E9
:020000040001F9
:04000E00A40FCF1F4D
:00000001FF
